:020000041000EA
:1000000000B5324B212058609868022188439860DF
:10001000D860186158612E4B002199600221596106
:100020000121F02299502B49196001219960352056
:1000300000F044F80222904214D00621196600F024
:1000400034F8196E01211966002018661A6600F04E
:100050002CF8196E196E196E052000F02FF8012189
:100060000842F9D1002199601B49196000215960AB
:100070001A491B48016001219960EB211966A021F2
:10008000196600F012F800219960164914480160C1
:100090000121996001BC002800D000471248134993
:1000A000086003C880F30888084703B5996A0420EC
:1000B0000142FBD001200142F8D103BD02B5186610
:1000C0001866FFF7F2FF186E186E02BD00000240BE
:1000D000000000180000070000035F00212200005C
:1000E000F4000018222000A00001001008ED00E03C
:1000F00000000000000000000000000074B24E7A12
:1001000000200420F7010010C3010010C5010010F9
:10011000C1010010C1010010C1010010C101001097
:10012000C1010010C1010010C1010010C701001081
:10013000C1010010C1010010C9010010CB01001065
:10014000CD010010CD010010CD010010CD01001037
:10015000CD010010CD010010CD010010CD01001027
:10016000CD010010CD010010CD010010CD01001017
:10017000CD010010CD010010CD010010CD01001007
:10018000CD010010CD010010CD010010CD010010F7
:10019000CD010010CD010010CD010010CD010010E7
:1001A000CD010010CD010010CD010010CD010010D7
:1001B000CD010010CD010010CD010010CD010010C7
:1001C00000BE00BE00BE00BE00BE00BE00F04BF888
:1001D000103800BEF2EB8871701E0010941E0010E3
:1001E0003402001090A31AE700202149086006C8D5
:1001F00081F3088810471F48006800282FD10DA4FC
:100200000ECC002902D000F012F8F9E71A491B4A77
:10021000002000E001C19142FCD1194988471949E9
:1002200088471949884700BEFDE701C901C29A42C3
:10023000FBD37047941E0010C00000204002002035
:1002400014200010000004200000042014200010DE
:1002500000100420001004200000000070470B482C
:1002600001F064FA0047EFF30580C0B27047000068
:1002700008ED00E0000000D040020020140600203D
:10028000FD1100105D030010ED1200105756000024
:1002900006005250ABB36053EC1D001006005250E4
:1002A000861C0302F41D0010060052505422A29D29
:1002B000FC1D001005005250DE65F468142000108B
:1002C000F8B5C0460448054B10B5834203D0044B33
:1002D000002B00D0984710BD4002002040020020B3
:1002E0000000000006480749091A8B10C90FC918F9
:1002F00010B5491003D0044B002B00D0984710BD17
:1003000040020020400200200000000010B5074C11
:100310002378002B09D1FFF7D5FF054B002B02D026
:10032000044800E000BF0123237010BD40050020F9
:1003300000000000801D0010054B10B5002B03D0FD
:100340000449054800E000BFFFF7CCFF10BDC046E0
:100350000000000044050020801D001010B500F0D2
:1003600007F8024801F020FC002010BD801D00109D
:1003700010B501F091FC10BD094A8300944640225B
:10038000634410B51C68C0006240C0241440802241
:10039000520113431C60034B9C466044416010BDF6
:1003A00004C001400040014070B5EFF3108C72B6FC
:1003B0000D4D2B68002BFCD0BFF35F8F0724CB08BB
:1003C000C618C05C01230C40A3401C00044003423B
:1003D00007D103433370BFF35F8F2C608CF3108819
:1003E00070BD100000F084FF2C0100D0024B186893
:1003F0008007C00F7047C04600C006400021044B74
:10040000044ABFF35F8F02C39342FAD17047C046DC
:10041000000100D0800100D0044A1078431CDBB2F8
:10042000172B00D9102313707047C04678010020A5
:1004300001238340002904D0034A1360034A136058
:100440007047034A1360FBE780E200E000E100E050
:1004500080E100E0024B10309B688000C05870477C
:1004600000ED00E070B50D00EFF3108672B60F4A94
:100470001368002BFCD0BFF35F8F0D4B10309B68CF
:1004800084001B590B4A934203D09D4201D000F0D7
:1004900047FF074B9B681D51BFF35F8FBFF35F8F13
:1004A0000022024B1A6086F3108870BD240100D030
:1004B00000ED00E0CD010010F0B5DE4657464E4697
:1004C0004546E0B50C0083B0EFF3108A72B65A4A85
:1004D0001368002BFCD0BFF35F8F1022914681443C
:1004E0004A46564B96009B689D59554B98469D42EF
:1004F00005D0A54216D0534FEB1B2F2B14D94F4BD1
:100500009B689D51BFF35F8FBFF35F8F00224A4B03
:100510001A608AF3108803B0F0BCBB46B246A94605
:10052000A046F0BD1D00EAE7012383409B465A46E2
:10053000454B1B681A4000925A46444B1A60BFF361
:100540005F8FFFF790FE0190002803D0814501D016
:1005500000F0E6FE01232A009A4393689C4208D1EA
:100560005FE04B005B189B00FB189968A14211D01B
:100570001A00062151560029F3DA009B002B05D002
:100580005A46334B1A60304B1A60B8E75A462F4B25
:100590001A60B4E706215956002921DB4A00501899
:1005A00080003C188046A0689860E079D8710620E9
:1005B00020569871002824DBA488F81A64052415B5
:1005C00044440019E0240005400D24022043988093
:1005D0005218204B9200BF181A781970BA71CCE7E4
:1005E0000199002910D1FF3191711B49918019495E
:1005F0000A789A71194ADB1B5B415A43120D0A7043
:10060000BBE7BD200002E2E7154A1649D21A083AB4
:100610005002400D01439980134952080A43DA8081
:10062000ABE70621515613000029B7DA019A002AD8
:10063000EAD14546DBE7C046240100D000ED00E0EA
:10064000CD0100107C01002000E100E080E100E02D
:1006500080E200E01106002000BDFFFFAAAA000012
:10066000B601002000F0FFFF00F8FFFFF8B50125FC
:1006700004000543FFF7F7FDEFF3108C72B6214A33
:100680001368002BFCD0BFF35F8F1F4E2100B768AB
:100690001E4A1F4B891A49414B431B0D59B2830017
:1006A000F858A8421CD00623D3568B421CD01223E4
:1006B000D3568B4222D01E23D3568B4220D02A23DE
:1006C000D35603208B4210D0124B1A781970A271A6
:1006D000BFF35F8F00220B4B1A608CF31088F8BDBC
:1006E000B2680D48D050EFE7002043001B189B0074
:1006F000D218FF239371094B9380E5E70120F4E7BB
:100700000220F2E7240100D000ED00E07C0100208F
:10071000AAAA000011060020CD01001000BDFFFFB5
:10072000054B064A1360064A136053609360D3601A
:1007300013615361936170478080808000E400E022
:1007400004E400E0024B9C4661448900016070476C
:100750004000003483680B4810B58446614462440D
:10076000090112019A18591854684B6801209C42DB
:1007700001D802D00020C0B210BD12680B689A42A6
:10078000F9D8F7E7FFFFFF0FF8B557464E46454645
:10079000DE46E0B599460CAB1C780DAB1B78060025
:1007A00090469A460768002C11D1BC7B002C42D0A1
:1007B00065003B682D19033D59194B78BB73002B1D
:1007C00000D1FB7300238B704B700B7004E065004D
:1007D0003B682D19033D5919B2682A4B944642468D
:1007E000E3181B0163441A604A465A600A9A9A60E9
:1007F0000B9ADA6000238B704B700B707B7B9B46EF
:10080000002B2BD022005946B8687B6898473A687D
:10081000002816D05B4658465B005B445519033BE5
:10082000A870D118D35C002B00D06B705B460C70A5
:100830007B73A34513D0F0BCBB46B246A946A04685
:10084000F8BD5B465B005B44033BD3189C705119B9
:10085000525D002A00D05A705B460B707C73424692
:100860004B46307D00F0DEF9051E06D05346002BC6
:1008700003D12100306800F0F7FB0E9B002BDAD08B
:100880001D70D8E7FFFFFF0FF0B5DE464E46574616
:1008900045460023E0B58DB00A936B4B8200D358D8
:1008A0000B90994600239B464B46079300F06AF94C
:1008B000079C06000F006268EFF3108572B613689C
:1008C000002BFCD022000794BFF35F8F2468637B6A
:1008D0009946002B67D092685C4B90464B441B01B5
:1008E000984443461A685B6810001900801BB941A0
:1008F00000295FDD0B9800F095F90023002698464B
:1009000000279A46079C6368BFF35F8F5A461A60B8
:1009100085F310885346002B08D10028C6D10DB0AE
:10092000F0BCBB46B246A946A046F0BD0A9B414674
:1009300018024B461843D047089009916268EFF3BC
:10094000108572B61368002BFCD00794BFF35F8F3D
:100950000899099A002A48DB114303D0079B1B69B9
:10096000002B5DD1079B1B68D97B002907D04A006B
:10097000521819688C4649466244033A51704A46F7
:10098000DA734B46079A013BD168CA5C0132CA54FC
:100990005B46079A13615368BFF35F8F5A461A602C
:1009A00085F3108882E700230026984600279A46A0
:1009B0000020A7E7002901D100289BD100212000B9
:1009C00000F0D4FA43461E685F689B68079A9A460F
:1009D0004346DB689846D3684B44013B1B780A9337
:1009E0001B020343136100208CE72369002BB9D05D
:1009F00033003C005B1A94411A002300A74219D827
:100A00009F421BD05946049101210391494602910E
:100A100041460191514607980091FFF7B5FEB7E7AF
:100A200000F0B0F8089A099B06000F0092197B416C
:100A30009942E5D901225242D317E3E79642E1D920
:100A400001225242D317DDE7E0050020FFFFFF0F30
:100A500010B5124C6368002B04D00A211048FFF730
:100A600071FE10BD23000F4A1021206800F09CF990
:100A7000032000F07BF8032000F044F903200A492A
:100A800000F08AF8FFF7C8FC084B9C46032360443B
:100A90002375074B80006060DC60DEE7C401002046
:100AA000F4050020550700108908001040000034AC
:100AB000E0050020F0B5D6464F464646C0B5EFF3F8
:100AC00005833F22134018001038EFF3108C72B6E4
:100AD000204D2A68002AFCD0BFF35F8F012211004D
:100AE00081401D4C884661631C4917000E788A4678
:100AF0003100C1400F400A4209D1BFF35F8F2F6020
:100B00008CF31088E0BCBA46B146A846F0BD144943
:100B10008200646A51588C420FD3124BD25843461C
:100B20009E4353461E70BFF35F8F00232B608CF3F0
:100B30001088002AE6D09047E4E70B4A9B009046D5
:100B400043441A681A60BFF35F8F00232B608CF355
:100B50001088D7E7280100D0004005401206002089
:100B6000F80500205C050020D03F054010B50100CD
:100B7000024A0348FFF718FC10BDC046901D001044
:100B800010060020034B596A0A00986A596A8A4283
:100B9000FAD170470040054070B504000D00EFF336
:100BA000108672B61A4A1368002BFCD0BFF35F8F11
:100BB000002D1BD02000FFF74DFC164981420AD0C2
:100BC0002000FFF74FFC01212000FFF731FC01233B
:100BD000A340114A1360114BA400E550BFF35F8F8F
:100BE00000220B4B1A6086F3108870BD0B4BA200DD
:100BF000D5500122A2400A4920000B7893430B7084
:100C00000449FFF759FC00212000FFF711FCE5E73C
:100C1000280100D0B50A0010386005405C050020AE
:100C200012060020F0B54F46D6464646C0B507002E
:100C30002F4C616A0D00A66A616AA942FAD18B4203
:100C400008D805D00120E0BCBA46B146A846F0BDA0
:100C5000B242F7D9EFF3108A72B62648016800292C
:100C6000FCD0BFF35F8F0125BD402349204C88464F
:100C7000097889462943C9B28C46414660460870C6
:100C8000391D1E48890065630A51B9000B50216A5D
:100C90000020294219D0616A0800A66A616A81426F
:100CA000FAD18B4219D801D1B24216D8CC451DD009
:100CB0000F4B1F201D625D6301230740BB40104A9C
:100CC0001E38136043464A461A70BFF35F8F0022F6
:100CD000084B1A608AF31088B5E70020BFF35F8FD6
:100CE0000022044B1A608AF31088ACE70120ECE77D
:100CF00000400540280100D012060020F805002021
:100D000080E200E0EFF3108C72B60A490B68002B0A
:100D1000FCD0BFF35F8F01238340074A074813626B
:100D200002789A430270BFF35F8F00230B608CF34D
:100D300010887047280100D00040054012060020AE
:100D400070B5050014001600002915D00C00002A0B
:100D500012D080686B689847296800280ED073000D
:100D60009B196200033B1219CB18033A9C70881838
:100D70008A5C002A15D10670200070BD63001B1923
:100D80007200033B9219CB18033A9E7088188A5C54
:100D9000002A02D104703400EEE75A700470340067
:100DA000EAE75A700670E7E730B583600023CCB2FB
:100DB00043730133047342608373C4730D0000688E
:100DC000012C06D9421C0133DBB2137003329C4262
:100DD000F9D1FF2129404B0059180023401803384E
:100DE000437030BDF8B5CE46474606000C0080B5CE
:100DF000002907D04D0003686D18033D5A19577834
:100E0000002F04D12000C0BCB946B046F8BD79001F
:100E1000C9190339884643445978894600215970D5
:100E2000517073683A002100806898473368002841
:100E300014D042469A18947059195B5D002B00D06B
:100E400053700F70270049463000FFF7CBFF390081
:100E500002003000FFF774FF0400D3E7424641462A
:100E60005D19AF709A185B5C002B00D06B7014702A
:100E7000E9E7C046F0B557464546DE464E46E0B582
:100E80000D006B0001685B19DF1E0400C85D83B0B4
:100E90000192CA1900284CD043001B18033BCB1801
:100EA0005E78B446002E16D1019E002E3ED0E67B21
:100EB000002E04D073009B19CB18033B5D70E573C3
:100EC00000282FD10023537003B0F0BCBB46B246BC
:100ED000A946A046F0BD72006244033A89184A78D8
:100EE000904600224A7091465A700100320020005C
:100EF000FFF726FF43468246002B07D05B002168A0
:100F00004344033BCB185A78002A16D14246514637
:100F10002000FFF715FF2168019BCA19002BC6D1DD
:100F20000028CFD043001B18033BCB180021997039
:100F3000C8E7019B002BBAD1C4E7500080180338E2
:100F40000918487883464846487058704146200042
:100F5000FFF7F6FE594680462000FFF743FF414663
:100F600002002000FFF7ECFE8046CFE7F0B55746C1
:100F70004546DE464E46E0B583B00191457B040010
:100F80006B0000685B19DF1EC15DC21900294ED0DD
:100F90004B005B18033BC3185E78B446002E18D193
:100FA000019E002E40D0E67B002E04D073009B19DA
:100FB000C318033B5D70E573002931D1002328007D
:100FC0005370617303B0F0BCBB46B246A946A0465D
:100FD000F0BD72006244033A8018427890460022C5
:100FE000427091465A7020003200FFF7A9FE434636
:100FF0008246002B07D05B0021684344033BCB189B
:101000005A78002A17D1424651462000FFF798FE31
:10101000019B01002068C219002BC4D10029CDD04A
:101020004B005B18033BC31800209870C6E7019B78
:10103000002BB8D1C2E7500080180338091848784F
:10104000834648464870587041462000FFF778FEB6
:10105000594680462000FFF7C5FE414602002000A9
:10106000FFF76EFE8046CEE770B5040000292CD055
:10107000437B8B422ED0056848004018033828185F
:101080008278002A21D053009B18033BEA5CEE18BB
:101090008A4202D11BE0002A08D053009B18033B70
:1010A000EB185A788A42F6D142785A70002301220E
:1010B000837043702000FFF7DDFE617B020020009B
:1010C000FFF73EFE6073012000E0002070BD437812
:1010D0003370EBE701221900FFF7CCFE60730120AB
:1010E000F4E7C04610B50400FFF796F901002000B0
:1010F000FFF728FBFF232371BFF35F8F10BDC046AE
:1011000010B50400FFF788F901002000FFF71AFB73
:10111000FF23A380BFF35F8F10BDC046F8B5040066
:1011200006200D0000F060FA002844D02A4B2B491D
:10113000E21853425A418023DB039C469205284B18
:1011400062441A60274B1A6010008B689843FBD1E9
:10115000214B8021E3185A425341234A5B00490046
:101160009952062000F040FA2900C00000F010FB60
:10117000C30921D140270121260080256162A36295
:1011800000232C36AD0135432B60062000F02CFAED
:101190003900800000F0FCFA6023E26A53406E22BE
:1011A0001A4080235B0133431A60104B23631023E2
:1011B0002B600D3BA364F8BD0D4A934203D9002375
:1011C0000C4F0D49D8E77F221040013040089F01A5
:1011D00019003F180300CFE70080FCBF00C00040AB
:1011E00000E0004000F0004008060020010300007D
:1011F000FEFF0000C0FF3F00FFFF00002C4B2D4A08
:1012000070B51A602C4A2D4B2D491A6014008B685A
:101210009C43FBD12B4D2C4EB54208D2013E761B90
:10122000B60808CD984723000134B342F9D100F045
:101230007DF8264A214B1A60214A9368DB43DB0183
:10124000DD09002BF9D14022214B224C224E9A6716
:101250005A671A67DA66B44208D223682000002B66
:1012600020D00834FFF74CFFB442F6D31B4E1C4C81
:10127000C022A168300000F061FBA660FFF7BEF855
:10128000FFF74EFAFFF7E4FB164C174EB44208D2B4
:10129000013E361BB60808CC98472B0001359E420C
:1012A000F9D170BD0834FFF71DFFB442D5D3DDE797
:1012B00000E00040BFCDFBFEFE7F3C0000F00040A0
:1012C00000C000402C0200203C020020FFFFFF0174
:1012D00000F00140240200202C0200200000002029
:1012E00000ED00E03C0200204002002000BEFDE7CF
:1012F0000FB400B5084883B000F056FC049B002BE7
:1013000007D005A91800019100F0F0F9034800F09A
:101310004BFC00BEFDE7C046B41D0010C41D00100C
:1013200010B50148FFF7E4FFC81D001030B50C20D0
:1013300083B000F0B7F9FFF759F800280ED0944BAE
:10134000944A1A605A609A60DA601A615A619A6126
:10135000DA611A62904A5A6203B030BD8F4CA067BE
:1013600000F0A8F901228E4B1A60636C012BFCD1AE
:1013700003228C4B1A60894A936B012BFCD10133F9
:101380000121894A89480093043300F033F9052389
:10139000874A00930121874800F02CF9864B5A6850
:1013A000FF2A02D8802252005A608022784C7D4B5E
:1013B00021691201804D1A60002905D0606900F092
:1013C000E7F901300138FDD1E0217B4B02201A689A
:1013D0001140802252012A431160196848400321BC
:1013E0000140116004219A681142FCD080228021C2
:1013F00092012A4309011160802252005A606F4B0A
:1014000023616F4B5968FF2900D85A600321644A51
:101410006B4B116002399A681142FCD0E0201A68C7
:101420001040802252011A4310601868484003217E
:1014300001400220116062498A681042FCD080227B
:1014400092011343802212011A6080225D4B5200E8
:101450004A6063615C4B5968FF2900D85A6080225A
:101460005A4BE1691201584D1A60002905D0606994
:1014700000F08EF901300138FDD1E02252490B68AD
:101480001A4080235B012B431A60802380229B013A
:101490002B4312011A6080223E4B52004A60E361E6
:1014A0004B4B5968FF2900D85A608022494B216A6A
:1014B0001201474D1A60002905D0606900F068F9F3
:1014C00001300138FDD1E02241490B681A408023E8
:1014D0005B012B431A60802380229B012B43120166
:1014E0001A60802380225B004B602A4BD202236269
:1014F000394B5968914200D25A608022374B616A59
:101500001201354D1A60002905D0606900F040F9DC
:1015100001300138FDD1E0222F490B681A408023A9
:101520005B012B431A60802380229B012B43120115
:101530001A608023DB024B60174B6362284B5A68AA
:10154000FF2A02D8802252005A608022254BA169CE
:101550001201234D1A60002905D0606900F018F9C6
:1015600001300138FDD1E0221D490B681A4080236B
:101570005B012B431A60802380229B012B431201C5
:101580001A6080235B004B600E4BA361E4E6C0460B
:101590006C050020006CDC021BB7000000800040DE
:1015A0003CB0004030B00040002F6859008002403D
:1015B000008C864700C0024030800040001BB7000E
:1015C0003C800040405973075480004054B00040B4
:1015D0006080004060B000406C8000406CB0004013
:1015E0004880004048B00040014B8000C058704720
:1015F0006C050020F0B5C646040000B50C209046EE
:101600001F000E0000F0C4F84101091A8D01691A8B
:10161000C90009188901404600F0BAF8069B3F044A
:101620001A0323681743002B22DB1A4B1A4DE218CA
:1016300053425A4180235B019C461203174B62447C
:101640001A60174B1A601100AB689943FBD1C02296
:10165000231D92011A4321232660A0601360236892
:10166000002BFCDA0823E760136080BCB846F0BDAD
:101670003F2322681340B342D7D1A3681B051B0D3B
:101680008342D2D1EE22E368D2021340BB42CCD1D6
:10169000EBE7C0460040FDBF00C0004000E0004056
:1016A00000F000408023024A9B000343D36270474E
:1016B00000800540AA23064A1B0113602F23054919
:1016C000D360054B19605368002BFCDA7047C046A5
:1016D0000040024000B0FA000060024010B500284F
:1016E00000D110BD00F010FAFBE7C04610B5094A62
:1016F0000300146884B0002C08D001220091064831
:10170000524203A9A047012004B010BD00F04CFADA
:101710000020F9E7DC050020DD1600100148042157
:10172000014B1847F00100204D170010142310B58D
:101730000100188804331B88984710BD162310B584
:101740000100188802331B88984710BDF8B547463A
:10175000CE4680B50F1E19D01423994604330400D9
:101760000025012698464B461888434621681B8869
:10177000984701C4431E9841013540420640AF429C
:10178000F1D13000C0BCB946B046F8BD0126F8E73B
:10179000114A936F9B0813D210665166002905D039
:1017A000FFE7FFE7FFE7516F106F704704B50028B0
:1017B00001D00020C04300F0CBFA002104BDC04698
:1017C000F0B5146E556E576F166FFFF7E5FF146690
:1017D000556657671667F0BD000000D0132370B53B
:1017E0001D78012D15D010DD1C48FFF7A7FF1C4CFC
:1017F00001008022200000F0A1F8022D06D0194837
:10180000FFF794FF184B186070BD154C174BA3647D
:10181000F5E7164B124C23606360A360E36023611D
:101820006361A361E36123626362A362E362236392
:101830006363A363E36323646364A364E364236572
:101840006365A365E36523666366A366E366236752
:101850006367A367E367A364D1E7C046534400000E
:10186000400300204C330000F005002071180010E8
:1018700007B5604601880A0A0230DF2AFAD1C9B2E8
:10188000820804D3028840880004104300E0006806
:10189000014A5050039007BD40030020132310B5A8
:1018A00012481C78FFF74AFF0100012C0AD003DD23
:1018B00080220F4800F042F80E48FFF737FF0E4B2A
:1018C000186010BD0A4C5422200000F037F80B4B72
:1018D0006365A365E36523666366A366E3662367C2
:1018E0006367A367E3672362E361E5E753460000AC
:1018F000400400204C330000F005002001190010C6
:1019000007B5604601880A0A0230DF2AFAD1C9B257
:10191000820804D3028840880004104300E0006875
:10192000014A5050039007BD4004002001480421A3
:10193000014B1847000200204D170010014B5B6857
:101940001847000000020020030010B50800110035
:101950001B68984710BDC046F0B546464F46D64670
:10196000C0B5437C80460E001700002B46D0002AED
:101970003FDD4B1E9946244B0125002400209A464A
:101980000DE04B461B5D0D3B5A425341325DDBB2CD
:101990000A2A0BD02B00013401359F421ADD002C9E
:1019A000EFD14346325D1B7C0A2AF3D1002BF1D1E3
:1019B000A04204DA4346211A1B6830189847434670
:1019C00050461B6802219847013428002B0001353E
:1019D0009F42E4DC874204DD4346391A1B68301815
:1019E0009847F619013E33780D3B5A42534142461F
:1019F0001374E0BCBA46B146A846F0BD03681100B6
:101A000030009847F5E7C0462C1E0010F0B5574649
:101A10004E464546DE461C00D023E0B51B061F6837
:101A2000344B83B006000D00180001A991469A4678
:101A300000F096F98046002808D1019B7FB29F42B2
:101A400004D0504600F094F9012398466B1C03D152
:101A5000300000F045F90500002C27D1264F274B18
:101A60001C68002C18D04B46002B21D1244B9946E2
:101A700002E0E468002C0FD02368002BF9D04B461D
:101A80001B68002B01D0A342F3D120002A003100B3
:101A9000B847E468002CEFD14346002B25D103B0B2
:101AA000F0BCBB46B246A946A046F0BD154FD6E7EE
:101AB000134B99460A239B4602E0E468002CEBD0C6
:101AC0002368002BF9D04B461B68002B01D0A342A2
:101AD000F3D12A0031002000B8475A466B46200057
:101AE0001A7101A90122B847E7E7504600F028F92A
:101AF000D5E7C0462402002059190010D405002063
:101B0000D805002049190010F0B5CE46474680B5EB
:101B100083B06B46DE1CD02330701B061C681F4B45
:101B2000804601A91800994600F01AF9071E20D036
:101B30001B4B1C68002C28D01A4D02E0E468002CD6
:101B40000FD02368002BF9D02B68002B01D0A342C3
:101B5000F4D1200001223100FFF7FEFEE468002CE2
:101B6000EFD1002F11D1404603B0C0BCB946B046FA
:101B7000F0BD019B64B29C420BD0484600F0F8F8DF
:101B8000074B01271C68002CD6D1484600F0D8F836
:101B9000E9E7034B1C68002CCED1E4E724020020C7
:101BA000D4050020D805002070B5040000F098F896
:101BB00000230100050001222000FFF727FF084B4A
:101BC0001C68002C06D06368002B05D09847E46899
:101BD000002CF8D1280070BDE468002CF3D1F9E79F
:101BE000D40500200A4A1368002B05D10CE01A0026
:101BF000DB680C32002B07D09842F8D1002902D1C3
:101C0000C3681360C16070470029FCD01060FAE718
:101C1000D4050020F0B50D1E15DD0E4B0D271A68FA
:101C20000D4B4519D31859424B410C495B005E5E80
:101C300020210478A64207D093691942FCD10130D3
:101C40001460A842F5D1F0BD93691942FCD1176028
:101C5000F2E7C0460C0600200080FCBF080600200A
:101C600030B504000D1E12DD00201021094B013C8F
:101C70001A689369194208D1013093691942FCD15D
:101C8000136823548542F4D130BD0028FCD10320D1
:101C90004042F9E70C060020E12110B50B4B0C483F
:101CA0001B780C4B49021B780B4B1860FFF736FA78
:101CB00002210020FEF760FB02210120FEF75CFB01
:101CC00001210648FFF78EFF10BDC0468C1E001094
:101CD00000400340901E00100C060020100200205F
:101CE00010B583070AD00300032102E001330B4241
:101CF00005D01A78002AF9D1181A10BD0300196806
:101D00000C4A0D4C8A188A4322420FD15968094A5D
:101D100004338A188A43224208D15968054A043399
:101D20008A188A432242F1D000E001331A78002A4F
:101D3000FBD1E1E7FFFEFEFE80808080F8B5C04663
:101D400001B40248844601BC604700BF4D01002039
:101D500001B40248844601BC604700BF7501002001
:101D600001B40248844601BC604700BF090100205D
:101D700001B40248844601BC604700BFC100002096
:101D800048656C6C6F2C20776F726C6421000000CA
:101D9000486172647761726520616C61726D2025A3
:101DA0006420616C726561647920636C61696D6542
:101DB000640000000A2A2A2A2050414E4943202A62
:101DC0002A2A0A000A0000004861726420617373C5
:101DD0006572740052656C6561736500626F6F7443
:101DE000325F77323571303830000000312E342EBA
:101DF000300000007069636F000000004A616E20CF
:101E0000313620323032330006005250BBFF3CB630
:101E1000F41D001006005250E182887FDC1D001086
:101E200006005250D3F07542D41D00100D0A000078
:101E30005541525420737464696E000055415254E8
:101E4000207374646F757400554152542073746428
:101E5000696E202F207374646F75740006005250F1
:101E600053B4F4A1481E0010080052509200000024
:101E7000B4020010A80200109C020010081E0010FE
:101E800090020010141E0010201E00105C1E001096
:041E9000681E0010B8
:101E9400D02330B500251B0600245D5706E00368F7
:101EA400BFF35F8F1C6081F3108820BF0268EFF3DB
:101EB400108172B61368002BFCD0BFF35F8F0379D7
:101EC4007F2BECD905710368BFF35F8F00221A6082
:101ED40081F3108830BDC04603000068EFF3108C16
:101EE40072B60268002AFCD0BFF35F8F04229A56B0
:101EF400002A0BDB00290FD000200A601B68BFF307
:101F04005F8F00221A608CF310887047D02212066B
:101F1400126801201A71F1E70020EFE70268EFF37D
:101F2400108172B61368002BFCD0BFF35F8FFF23C0
:101F340003710368BFF35F8F00221A6081F3108876
:101F440040BF70477047C04610000000000000000A
:101F5400000001000000000000000000000002007A
:101F6400000000000000000000000300000000006A
:101F7400000000000000FF000000000000B54868F9
:101F840001318E460047704609380149884700BD33
:101F94006D060010DC01002000000000400200205B
:101FA400940500200000000000000000A4050020AB
:101FB400000000000000000010000000000000000D
:101FC400503300004C3300005433000052330000FF
:101FD4004D5300004D4300005334000043340000CF
:101FE400151C001000000000611C0010000000001F
:101FF4000001000000000000000000002D19001086
:102004001D170010DD1700109D1800103903001073
:04000005100001E9FD
:00000001FF
